{"project/contracts/Week6Module.sol":{"Week6Module":{"abi":[{"inputs":[],"name":"ASSIGNMENT_ID","outputs":[{"internalType":"bytes32","name":"","type":"bytes32"}],"stateMutability":"view","type":"function"},{"inputs":[],"name":"STAKE_WINDOW_SECONDS","outputs":[{"internalType":"uint256","name":"","type":"uint256"}],"stateMutability":"view","type":"function"},{"inputs":[],"name":"TITLE","outputs":[{"internalType":"string","name":"","type":"string"}],"stateMutability":"view","type":"function"},{"inputs":[],"name":"WEEK","outputs":[{"internalType":"string","name":"","type":"string"}],"stateMutability":"view","type":"function"},{"inputs":[],"name":"WITHDRAW_WINDOW_SECONDS","outputs":[{"internalType":"uint256","name":"","type":"uint256"}],"stateMutability":"view","type":"function"},{"inputs":[],"name":"assignment","outputs":[{"internalType":"bytes32","name":"id","type":"bytes32"},{"internalType":"string","name":"week","type":"string"},{"internalType":"string","name":"title","type":"string"},{"internalType":"string","name":"summary","type":"string"}],"stateMutability":"pure","type":"function"}],"evm":{"bytecode":{"linkReferences":{},"object":"6080604052348015600e575f5ffd5b506104728061001c5f395ff3fe608060405234801561000f575f5ffd5b5060043610610060575f3560e01c806325b08c78146100645780636a565f731461008257806371ca2ecf146100a05780637ef83804146100c1578063a9f05b8d146100df578063f4359ce5146100fd575b5f5ffd5b61006c61011b565b604051610079919061028d565b60405180910390f35b61008a610120565b60405161009791906102be565b60405180910390f35b6100a8610144565b6040516100b89493929190610347565b60405180910390f35b6100c96101fe565b6040516100d6919061039f565b60405180910390f35b6100e7610237565b6040516100f4919061028d565b60405180910390f35b61010561023c565b604051610112919061039f565b60405180910390f35b60f081565b7fb5f457e25783f60cb742b99eb7dc806775943d8622425291d3ee814312cc3dfa81565b5f60608060607fb5f457e25783f60cb742b99eb7dc806775943d8622425291d3ee814312cc3dfa6040518060400160405280600681526020017f5765656b203600000000000000000000000000000000000000000000000000008152506040518060400160405280601b81526020017f4275696c642061205374616b696e67204170706c69636174696f6e00000000008152506040518060a00160405280607d81526020016103c0607d9139935093509350935090919293565b6040518060400160405280601b81526020017f4275696c642061205374616b696e67204170706c69636174696f6e000000000081525081565b607881565b6040518060400160405280600681526020017f5765656b2036000000000000000000000000000000000000000000000000000081525081565b5f819050919050565b61028781610275565b82525050565b5f6020820190506102a05f83018461027e565b92915050565b5f819050919050565b6102b8816102a6565b82525050565b5f6020820190506102d15f8301846102af565b92915050565b5f81519050919050565b5f82825260208201905092915050565b8281835e5f83830152505050565b5f601f19601f8301169050919050565b5f610319826102d7565b61032381856102e1565b93506103338185602086016102f1565b61033c816102ff565b840191505092915050565b5f60808201905061035a5f8301876102af565b818103602083015261036c818661030f565b90508181036040830152610380818561030f565b90508181036060830152610394818461030f565b905095945050505050565b5f6020820190508181035f8301526103b7818461030f565b90509291505056fe5374616b65204554482c2077697468647261772072657761726473206265666f7265207468652077696e646f7720636c6f7365732c20616e64206c6f636b2072656d61696e696e672066756e647320696e746f207468652065787465726e616c20636f6e74726163742061667465722074686520636f6f6c646f776e2ea2646970667358221220a13d5e1e802cfb5027e5fde0101bac80ec7cf6331f83e98bc3550340ca8e760864736f6c634300081e0033","opcodes":"PUSH1 0x80 PUSH1 0x40 MSTORE CALLVALUE DUP1 ISZERO PUSH1 0xE JUMPI PUSH0 PUSH0 REVERT JUMPDEST POP PUSH2 0x472 DUP1 PUSH2 0x1C PUSH0 CODECOPY PUSH0 RETURN INVALID PUSH1 0x80 PUSH1 0x40 MSTORE CALLVALUE DUP1 ISZERO PUSH2 0xF JUMPI PUSH0 PUSH0 REVERT JUMPDEST POP PUSH1 0x4 CALLDATASIZE LT PUSH2 0x60 JUMPI PUSH0 CALLDATALOAD PUSH1 0xE0 SHR DUP1 PUSH4 0x25B08C78 EQ PUSH2 0x64 JUMPI DUP1 PUSH4 0x6A565F73 EQ PUSH2 0x82 JUMPI DUP1 PUSH4 0x71CA2ECF EQ PUSH2 0xA0 JUMPI DUP1 PUSH4 0x7EF83804 EQ PUSH2 0xC1 JUMPI DUP1 PUSH4 0xA9F05B8D EQ PUSH2 0xDF JUMPI DUP1 PUSH4 0xF4359CE5 EQ PUSH2 0xFD JUMPI JUMPDEST PUSH0 PUSH0 REVERT JUMPDEST PUSH2 0x6C PUSH2 0x11B JUMP JUMPDEST PUSH1 0x40 MLOAD PUSH2 0x79 SWAP2 SWAP1 PUSH2 0x28D JUMP JUMPDEST PUSH1 0x40 MLOAD DUP1 SWAP2 SUB SWAP1 RETURN JUMPDEST PUSH2 0x8A PUSH2 0x120 JUMP JUMPDEST PUSH1 0x40 MLOAD PUSH2 0x97 SWAP2 SWAP1 PUSH2 0x2BE JUMP JUMPDEST PUSH1 0x40 MLOAD DUP1 SWAP2 SUB SWAP1 RETURN JUMPDEST PUSH2 0xA8 PUSH2 0x144 JUMP JUMPDEST PUSH1 0x40 MLOAD PUSH2 0xB8 SWAP5 SWAP4 SWAP3 SWAP2 SWAP1 PUSH2 0x347 JUMP JUMPDEST PUSH1 0x40 MLOAD DUP1 SWAP2 SUB SWAP1 RETURN JUMPDEST PUSH2 0xC9 PUSH2 0x1FE JUMP JUMPDEST PUSH1 0x40 MLOAD PUSH2 0xD6 SWAP2 SWAP1 PUSH2 0x39F JUMP JUMPDEST PUSH1 0x40 MLOAD DUP1 SWAP2 SUB SWAP1 RETURN JUMPDEST PUSH2 0xE7 PUSH2 0x237 JUMP JUMPDEST PUSH1 0x40 MLOAD PUSH2 0xF4 SWAP2 SWAP1 PUSH2 0x28D JUMP JUMPDEST PUSH1 0x40 MLOAD DUP1 SWAP2 SUB SWAP1 RETURN JUMPDEST PUSH2 0x105 PUSH2 0x23C JUMP JUMPDEST PUSH1 0x40 MLOAD PUSH2 0x112 SWAP2 SWAP1 PUSH2 0x39F JUMP JUMPDEST PUSH1 0x40 MLOAD DUP1 SWAP2 SUB SWAP1 RETURN JUMPDEST PUSH1 0xF0 DUP2 JUMP JUMPDEST PUSH32 0xB5F457E25783F60CB742B99EB7DC806775943D8622425291D3EE814312CC3DFA DUP2 JUMP JUMPDEST PUSH0 PUSH1 0x60 DUP1 PUSH1 0x60 PUSH32 0xB5F457E25783F60CB742B99EB7DC806775943D8622425291D3EE814312CC3DFA PUSH1 0x40 MLOAD DUP1 PUSH1 0x40 ADD PUSH1 0x40 MSTORE DUP1 PUSH1 0x6 DUP2 MSTORE PUSH1 0x20 ADD PUSH32 0x5765656B20360000000000000000000000000000000000000000000000000000 DUP2 MSTORE POP PUSH1 0x40 MLOAD DUP1 PUSH1 0x40 ADD PUSH1 0x40 MSTORE DUP1 PUSH1 0x1B DUP2 MSTORE PUSH1 0x20 ADD PUSH32 0x4275696C642061205374616B696E67204170706C69636174696F6E0000000000 DUP2 MSTORE POP PUSH1 0x40 MLOAD DUP1 PUSH1 0xA0 ADD PUSH1 0x40 MSTORE DUP1 PUSH1 0x7D DUP2 MSTORE PUSH1 0x20 ADD PUSH2 0x3C0 PUSH1 0x7D SWAP2 CODECOPY SWAP4 POP SWAP4 POP SWAP4 POP SWAP4 POP SWAP1 SWAP2 SWAP3 SWAP4 JUMP JUMPDEST PUSH1 0x40 MLOAD DUP1 PUSH1 0x40 ADD PUSH1 0x40 MSTORE DUP1 PUSH1 0x1B DUP2 MSTORE PUSH1 0x20 ADD PUSH32 0x4275696C642061205374616B696E67204170706C69636174696F6E0000000000 DUP2 MSTORE POP DUP2 JUMP JUMPDEST PUSH1 0x78 DUP2 JUMP JUMPDEST PUSH1 0x40 MLOAD DUP1 PUSH1 0x40 ADD PUSH1 0x40 MSTORE DUP1 PUSH1 0x6 DUP2 MSTORE PUSH1 0x20 ADD PUSH32 0x5765656B20360000000000000000000000000000000000000000000000000000 DUP2 MSTORE POP DUP2 JUMP JUMPDEST PUSH0 DUP2 SWAP1 POP SWAP2 SWAP1 POP JUMP JUMPDEST PUSH2 0x287 DUP2 PUSH2 0x275 JUMP JUMPDEST DUP3 MSTORE POP POP JUMP JUMPDEST PUSH0 PUSH1 0x20 DUP3 ADD SWAP1 POP PUSH2 0x2A0 PUSH0 DUP4 ADD DUP5 PUSH2 0x27E JUMP JUMPDEST SWAP3 SWAP2 POP POP JUMP JUMPDEST PUSH0 DUP2 SWAP1 POP SWAP2 SWAP1 POP JUMP JUMPDEST PUSH2 0x2B8 DUP2 PUSH2 0x2A6 JUMP JUMPDEST DUP3 MSTORE POP POP JUMP JUMPDEST PUSH0 PUSH1 0x20 DUP3 ADD SWAP1 POP PUSH2 0x2D1 PUSH0 DUP4 ADD DUP5 PUSH2 0x2AF JUMP JUMPDEST SWAP3 SWAP2 POP POP JUMP JUMPDEST PUSH0 DUP2 MLOAD SWAP1 POP SWAP2 SWAP1 POP JUMP JUMPDEST PUSH0 DUP3 DUP3 MSTORE PUSH1 0x20 DUP3 ADD SWAP1 POP SWAP3 SWAP2 POP POP JUMP JUMPDEST DUP3 DUP2 DUP4 MCOPY PUSH0 DUP4 DUP4 ADD MSTORE POP POP POP JUMP JUMPDEST PUSH0 PUSH1 0x1F NOT PUSH1 0x1F DUP4 ADD AND SWAP1 POP SWAP2 SWAP1 POP JUMP JUMPDEST PUSH0 PUSH2 0x319 DUP3 PUSH2 0x2D7 JUMP JUMPDEST PUSH2 0x323 DUP2 DUP6 PUSH2 0x2E1 JUMP JUMPDEST SWAP4 POP PUSH2 0x333 DUP2 DUP6 PUSH1 0x20 DUP7 ADD PUSH2 0x2F1 JUMP JUMPDEST PUSH2 0x33C DUP2 PUSH2 0x2FF JUMP JUMPDEST DUP5 ADD SWAP2 POP POP SWAP3 SWAP2 POP POP JUMP JUMPDEST PUSH0 PUSH1 0x80 DUP3 ADD SWAP1 POP PUSH2 0x35A PUSH0 DUP4 ADD DUP8 PUSH2 0x2AF JUMP JUMPDEST DUP2 DUP2 SUB PUSH1 0x20 DUP4 ADD MSTORE PUSH2 0x36C DUP2 DUP7 PUSH2 0x30F JUMP JUMPDEST SWAP1 POP DUP2 DUP2 SUB PUSH1 0x40 DUP4 ADD MSTORE PUSH2 0x380 DUP2 DUP6 PUSH2 0x30F JUMP JUMPDEST SWAP1 POP DUP2 DUP2 SUB PUSH1 0x60 DUP4 ADD MSTORE PUSH2 0x394 DUP2 DUP5 PUSH2 0x30F JUMP JUMPDEST SWAP1 POP SWAP6 SWAP5 POP POP POP POP POP JUMP JUMPDEST PUSH0 PUSH1 0x20 DUP3 ADD SWAP1 POP DUP2 DUP2 SUB PUSH0 DUP4 ADD MSTORE PUSH2 0x3B7 DUP2 DUP5 PUSH2 0x30F JUMP JUMPDEST SWAP1 POP SWAP3 SWAP2 POP POP JUMP INVALID MSTORE8 PUSH21 0x616B65204554482C20776974686472617720726577 PUSH2 0x7264 PUSH20 0x206265666F7265207468652077696E646F772063 PUSH13 0x6F7365732C20616E64206C6F63 PUSH12 0x2072656D61696E696E672066 PUSH22 0x6E647320696E746F207468652065787465726E616C20 PUSH4 0x6F6E7472 PUSH2 0x6374 KECCAK256 PUSH2 0x6674 PUSH6 0x722074686520 PUSH4 0x6F6F6C64 PUSH16 0x776E2EA2646970667358221220A13D5E 0x1E DUP1 0x2C EXTSTATICCALL POP 0x27 JUMPF 0xFDE0 LT SHL 0xAC DUP1 EOFCREATE 0x7C 0xF6 CALLER 0x1F DUP4 0xE9 DUP12 0xC3 SSTORE SUB BLOCKHASH 0xCA DUP15 PUSH23 0x864736F6C634300081E00330000000000000000000000 "},"methodIdentifiers":{"ASSIGNMENT_ID()":"6a565f73","STAKE_WINDOW_SECONDS()":"a9f05b8d","TITLE()":"7ef83804","WEEK()":"f4359ce5","WITHDRAW_WINDOW_SECONDS()":"25b08c78","assignment()":"71ca2ecf"}}}}}