{"project/contracts/ExampleExternalContract.sol":{"ExampleExternalContract":{"abi":[{"anonymous":false,"inputs":[{"indexed":true,"internalType":"address","name":"caller","type":"address"},{"indexed":false,"internalType":"uint256","name":"amount","type":"uint256"},{"indexed":false,"internalType":"uint256","name":"timestamp","type":"uint256"}],"name":"FundsLocked","type":"event"},{"inputs":[],"name":"complete","outputs":[],"stateMutability":"payable","type":"function"},{"inputs":[],"name":"completed","outputs":[{"internalType":"bool","name":"","type":"bool"}],"stateMutability":"view","type":"function"},{"inputs":[],"name":"completedAt","outputs":[{"internalType":"uint256","name":"","type":"uint256"}],"stateMutability":"view","type":"function"},{"inputs":[],"name":"completionCount","outputs":[{"internalType":"uint256","name":"","type":"uint256"}],"stateMutability":"view","type":"function"},{"inputs":[],"name":"totalReceived","outputs":[{"internalType":"uint256","name":"","type":"uint256"}],"stateMutability":"view","type":"function"}],"evm":{"bytecode":{"linkReferences":{},"object":"6080604052348015600e575f5ffd5b506103a08061001c5f395ff3fe608060405260043610610049575f3560e01c8063387712421461004d578063522e1177146100775780639d9a7fe914610081578063a3c2c462146100ab578063e8fa67a4146100d5575b5f5ffd5b348015610058575f5ffd5b506100616100ff565b60405161006e919061021f565b60405180910390f35b61007f610105565b005b34801561008c575f5ffd5b506100956101ea565b6040516100a29190610252565b60405180910390f35b3480156100b6575f5ffd5b506100bf6101fb565b6040516100cc919061021f565b60405180910390f35b3480156100e0575f5ffd5b506100e9610201565b6040516100f6919061021f565b60405180910390f35b60015481565b5f3411610147576040517f08c379a000000000000000000000000000000000000000000000000000000000815260040161013e906102c5565b60405180910390fd5b60015f5f6101000a81548160ff021916908315150217905550426001819055503460025f8282546101789190610310565b92505081905550600160035f8282546101919190610310565b925050819055503373ffffffffffffffffffffffffffffffffffffffff167fe52cdcd45f0913116ea4f3de9bab0401ca2bbb5593445d1f6736170f57db75e834426040516101e0929190610343565b60405180910390a2565b5f5f9054906101000a900460ff1681565b60025481565b60035481565b5f819050919050565b61021981610207565b82525050565b5f6020820190506102325f830184610210565b92915050565b5f8115159050919050565b61024c81610238565b82525050565b5f6020820190506102655f830184610243565b92915050565b5f82825260208201905092915050565b7f4e6f2076616c75652073656e74000000000000000000000000000000000000005f82015250565b5f6102af600d8361026b565b91506102ba8261027b565b602082019050919050565b5f6020820190508181035f8301526102dc816102a3565b9050919050565b7f4e487b71000000000000000000000000000000000000000000000000000000005f52601160045260245ffd5b5f61031a82610207565b915061032583610207565b925082820190508082111561033d5761033c6102e3565b5b92915050565b5f6040820190506103565f830185610210565b6103636020830184610210565b939250505056fea2646970667358221220b7bf622d36a2bba559fe5ec2f8739ebf5a0134b4bd6eff093f1016e6b1f2383564736f6c634300081e0033","opcodes":"PUSH1 0x80 PUSH1 0x40 MSTORE CALLVALUE DUP1 ISZERO PUSH1 0xE JUMPI PUSH0 PUSH0 REVERT JUMPDEST POP PUSH2 0x3A0 DUP1 PUSH2 0x1C PUSH0 CODECOPY PUSH0 RETURN INVALID PUSH1 0x80 PUSH1 0x40 MSTORE PUSH1 0x4 CALLDATASIZE LT PUSH2 0x49 JUMPI PUSH0 CALLDATALOAD PUSH1 0xE0 SHR DUP1 PUSH4 0x38771242 EQ PUSH2 0x4D JUMPI DUP1 PUSH4 0x522E1177 EQ PUSH2 0x77 JUMPI DUP1 PUSH4 0x9D9A7FE9 EQ PUSH2 0x81 JUMPI DUP1 PUSH4 0xA3C2C462 EQ PUSH2 0xAB JUMPI DUP1 PUSH4 0xE8FA67A4 EQ PUSH2 0xD5 JUMPI JUMPDEST PUSH0 PUSH0 REVERT JUMPDEST CALLVALUE DUP1 ISZERO PUSH2 0x58 JUMPI PUSH0 PUSH0 REVERT JUMPDEST POP PUSH2 0x61 PUSH2 0xFF JUMP JUMPDEST PUSH1 0x40 MLOAD PUSH2 0x6E SWAP2 SWAP1 PUSH2 0x21F JUMP JUMPDEST PUSH1 0x40 MLOAD DUP1 SWAP2 SUB SWAP1 RETURN JUMPDEST PUSH2 0x7F PUSH2 0x105 JUMP JUMPDEST STOP JUMPDEST CALLVALUE DUP1 ISZERO PUSH2 0x8C JUMPI PUSH0 PUSH0 REVERT JUMPDEST POP PUSH2 0x95 PUSH2 0x1EA JUMP JUMPDEST PUSH1 0x40 MLOAD PUSH2 0xA2 SWAP2 SWAP1 PUSH2 0x252 JUMP JUMPDEST PUSH1 0x40 MLOAD DUP1 SWAP2 SUB SWAP1 RETURN JUMPDEST CALLVALUE DUP1 ISZERO PUSH2 0xB6 JUMPI PUSH0 PUSH0 REVERT JUMPDEST POP PUSH2 0xBF PUSH2 0x1FB JUMP JUMPDEST PUSH1 0x40 MLOAD PUSH2 0xCC SWAP2 SWAP1 PUSH2 0x21F JUMP JUMPDEST PUSH1 0x40 MLOAD DUP1 SWAP2 SUB SWAP1 RETURN JUMPDEST CALLVALUE DUP1 ISZERO PUSH2 0xE0 JUMPI PUSH0 PUSH0 REVERT JUMPDEST POP PUSH2 0xE9 PUSH2 0x201 JUMP JUMPDEST PUSH1 0x40 MLOAD PUSH2 0xF6 SWAP2 SWAP1 PUSH2 0x21F JUMP JUMPDEST PUSH1 0x40 MLOAD DUP1 SWAP2 SUB SWAP1 RETURN JUMPDEST PUSH1 0x1 SLOAD DUP2 JUMP JUMPDEST PUSH0 CALLVALUE GT PUSH2 0x147 JUMPI PUSH1 0x40 MLOAD PUSH32 0x8C379A000000000000000000000000000000000000000000000000000000000 DUP2 MSTORE PUSH1 0x4 ADD PUSH2 0x13E SWAP1 PUSH2 0x2C5 JUMP JUMPDEST PUSH1 0x40 MLOAD DUP1 SWAP2 SUB SWAP1 REVERT JUMPDEST PUSH1 0x1 PUSH0 PUSH0 PUSH2 0x100 EXP DUP2 SLOAD DUP2 PUSH1 0xFF MUL NOT AND SWAP1 DUP4 ISZERO ISZERO MUL OR SWAP1 SSTORE POP TIMESTAMP PUSH1 0x1 DUP2 SWAP1 SSTORE POP CALLVALUE PUSH1 0x2 PUSH0 DUP3 DUP3 SLOAD PUSH2 0x178 SWAP2 SWAP1 PUSH2 0x310 JUMP JUMPDEST SWAP3 POP POP DUP2 SWAP1 SSTORE POP PUSH1 0x1 PUSH1 0x3 PUSH0 DUP3 DUP3 SLOAD PUSH2 0x191 SWAP2 SWAP1 PUSH2 0x310 JUMP JUMPDEST SWAP3 POP POP DUP2 SWAP1 SSTORE POP CALLER PUSH20 0xFFFFFFFFFFFFFFFFFFFFFFFFFFFFFFFFFFFFFFFF AND PUSH32 0xE52CDCD45F0913116EA4F3DE9BAB0401CA2BBB5593445D1F6736170F57DB75E8 CALLVALUE TIMESTAMP PUSH1 0x40 MLOAD PUSH2 0x1E0 SWAP3 SWAP2 SWAP1 PUSH2 0x343 JUMP JUMPDEST PUSH1 0x40 MLOAD DUP1 SWAP2 SUB SWAP1 LOG2 JUMP JUMPDEST PUSH0 PUSH0 SWAP1 SLOAD SWAP1 PUSH2 0x100 EXP SWAP1 DIV PUSH1 0xFF AND DUP2 JUMP JUMPDEST PUSH1 0x2 SLOAD DUP2 JUMP JUMPDEST PUSH1 0x3 SLOAD DUP2 JUMP JUMPDEST PUSH0 DUP2 SWAP1 POP SWAP2 SWAP1 POP JUMP JUMPDEST PUSH2 0x219 DUP2 PUSH2 0x207 JUMP JUMPDEST DUP3 MSTORE POP POP JUMP JUMPDEST PUSH0 PUSH1 0x20 DUP3 ADD SWAP1 POP PUSH2 0x232 PUSH0 DUP4 ADD DUP5 PUSH2 0x210 JUMP JUMPDEST SWAP3 SWAP2 POP POP JUMP JUMPDEST PUSH0 DUP2 ISZERO ISZERO SWAP1 POP SWAP2 SWAP1 POP JUMP JUMPDEST PUSH2 0x24C DUP2 PUSH2 0x238 JUMP JUMPDEST DUP3 MSTORE POP POP JUMP JUMPDEST PUSH0 PUSH1 0x20 DUP3 ADD SWAP1 POP PUSH2 0x265 PUSH0 DUP4 ADD DUP5 PUSH2 0x243 JUMP JUMPDEST SWAP3 SWAP2 POP POP JUMP JUMPDEST PUSH0 DUP3 DUP3 MSTORE PUSH1 0x20 DUP3 ADD SWAP1 POP SWAP3 SWAP2 POP POP JUMP JUMPDEST PUSH32 0x4E6F2076616C75652073656E7400000000000000000000000000000000000000 PUSH0 DUP3 ADD MSTORE POP JUMP JUMPDEST PUSH0 PUSH2 0x2AF PUSH1 0xD DUP4 PUSH2 0x26B JUMP JUMPDEST SWAP2 POP PUSH2 0x2BA DUP3 PUSH2 0x27B JUMP JUMPDEST PUSH1 0x20 DUP3 ADD SWAP1 POP SWAP2 SWAP1 POP JUMP JUMPDEST PUSH0 PUSH1 0x20 DUP3 ADD SWAP1 POP DUP2 DUP2 SUB PUSH0 DUP4 ADD MSTORE PUSH2 0x2DC DUP2 PUSH2 0x2A3 JUMP JUMPDEST SWAP1 POP SWAP2 SWAP1 POP JUMP JUMPDEST PUSH32 0x4E487B7100000000000000000000000000000000000000000000000000000000 PUSH0 MSTORE PUSH1 0x11 PUSH1 0x4 MSTORE PUSH1 0x24 PUSH0 REVERT JUMPDEST PUSH0 PUSH2 0x31A DUP3 PUSH2 0x207 JUMP JUMPDEST SWAP2 POP PUSH2 0x325 DUP4 PUSH2 0x207 JUMP JUMPDEST SWAP3 POP DUP3 DUP3 ADD SWAP1 POP DUP1 DUP3 GT ISZERO PUSH2 0x33D JUMPI PUSH2 0x33C PUSH2 0x2E3 JUMP JUMPDEST JUMPDEST SWAP3 SWAP2 POP POP JUMP JUMPDEST PUSH0 PUSH1 0x40 DUP3 ADD SWAP1 POP PUSH2 0x356 PUSH0 DUP4 ADD DUP6 PUSH2 0x210 JUMP JUMPDEST PUSH2 0x363 PUSH1 0x20 DUP4 ADD DUP5 PUSH2 0x210 JUMP JUMPDEST SWAP4 SWAP3 POP POP POP JUMP INVALID LOG2 PUSH5 0x6970667358 0x22 SLT KECCAK256 0xB7 0xBF PUSH3 0x2D36A2 0xBB 0xA5 MSIZE INVALID MCOPY 0xC2 EXTCALL PUSH20 0x9EBF5A0134B4BD6EFF093F1016E6B1F238356473 PUSH16 0x6C634300081E00330000000000000000 "},"methodIdentifiers":{"complete()":"522e1177","completed()":"9d9a7fe9","completedAt()":"38771242","completionCount()":"e8fa67a4","totalReceived()":"a3c2c462"}}}}}