{"project/contracts/Staker.sol":{"Staker":{"abi":[{"inputs":[{"internalType":"address","name":"exampleExternalContractAddress","type":"address"}],"stateMutability":"payable","type":"constructor"},{"inputs":[],"name":"AlreadyStaked","type":"error"},{"inputs":[],"name":"AlreadyWithdrawn","type":"error"},{"inputs":[],"name":"LockWindowNotOpen","type":"error"},{"inputs":[],"name":"NoActiveCycle","type":"error"},{"inputs":[],"name":"NoFundsToLock","type":"error"},{"inputs":[],"name":"NotStaker","type":"error"},{"inputs":[],"name":"Reentrancy","type":"error"},{"inputs":[],"name":"StakeWindowClosed","type":"error"},{"inputs":[],"name":"WithdrawWindowClosed","type":"error"},{"inputs":[],"name":"WithdrawWindowNotOpen","type":"error"},{"inputs":[],"name":"ZeroValue","type":"error"},{"anonymous":false,"inputs":[{"indexed":false,"internalType":"uint256","name":"completedRounds","type":"uint256"}],"name":"CycleReset","type":"event"},{"anonymous":false,"inputs":[{"indexed":true,"internalType":"address","name":"funder","type":"address"},{"indexed":false,"internalType":"uint256","name":"amount","type":"uint256"}],"name":"RewardsFunded","type":"event"},{"anonymous":false,"inputs":[{"indexed":true,"internalType":"address","name":"staker","type":"address"},{"indexed":false,"internalType":"uint256","name":"amount","type":"uint256"}],"name":"Staked","type":"event"},{"anonymous":false,"inputs":[{"indexed":true,"internalType":"address","name":"staker","type":"address"},{"indexed":false,"internalType":"uint256","name":"payout","type":"uint256"},{"indexed":false,"internalType":"uint256","name":"reward","type":"uint256"}],"name":"Withdrawn","type":"event"},{"inputs":[],"name":"REWARD_PER_BLOCK","outputs":[{"internalType":"uint256","name":"","type":"uint256"}],"stateMutability":"view","type":"function"},{"inputs":[],"name":"SECONDS_PER_BLOCK","outputs":[{"internalType":"uint256","name":"","type":"uint256"}],"stateMutability":"view","type":"function"},{"inputs":[],"name":"STAKE_WINDOW_DURATION","outputs":[{"internalType":"uint256","name":"","type":"uint256"}],"stateMutability":"view","type":"function"},{"inputs":[],"name":"WITHDRAW_WINDOW_DURATION","outputs":[{"internalType":"uint256","name":"","type":"uint256"}],"stateMutability":"view","type":"function"},{"inputs":[],"name":"calculateReward","outputs":[{"internalType":"uint256","name":"","type":"uint256"}],"stateMutability":"view","type":"function"},{"inputs":[],"name":"completedRounds","outputs":[{"internalType":"uint256","name":"","type":"uint256"}],"stateMutability":"view","type":"function"},{"inputs":[],"name":"exampleExternalContract","outputs":[{"internalType":"contract ExampleExternalContract","name":"","type":"address"}],"stateMutability":"view","type":"function"},{"inputs":[],"name":"fundRewards","outputs":[],"stateMutability":"payable","type":"function"},{"inputs":[],"name":"lockFundsInExternalContract","outputs":[],"stateMutability":"nonpayable","type":"function"},{"inputs":[],"name":"stake","outputs":[],"stateMutability":"payable","type":"function"},{"inputs":[],"name":"stakeDeadline","outputs":[{"internalType":"uint256","name":"","type":"uint256"}],"stateMutability":"view","type":"function"},{"inputs":[],"name":"stakedAmount","outputs":[{"internalType":"uint256","name":"","type":"uint256"}],"stateMutability":"view","type":"function"},{"inputs":[],"name":"stakedAt","outputs":[{"internalType":"uint256","name":"","type":"uint256"}],"stateMutability":"view","type":"function"},{"inputs":[],"name":"staker","outputs":[{"internalType":"address","name":"","type":"address"}],"stateMutability":"view","type":"function"},{"inputs":[],"name":"withdraw","outputs":[],"stateMutability":"nonpayable","type":"function"},{"inputs":[],"name":"withdrawDeadline","outputs":[{"internalType":"uint256","name":"","type":"uint256"}],"stateMutability":"view","type":"function"},{"inputs":[],"name":"withdrawableAmount","outputs":[{"internalType":"uint256","name":"","type":"uint256"}],"stateMutability":"view","type":"function"},{"inputs":[],"name":"withdrawn","outputs":[{"internalType":"bool","name":"","type":"bool"}],"stateMutability":"view","type":"function"},{"stateMutability":"payable","type":"receive"}],"evm":{"bytecode":{"linkReferences":{},"object":"60a06040526040516112eb3803806112eb83398181016040528101906100259190610114565b8073ffffffffffffffffffffffffffffffffffffffff1660808173ffffffffffffffffffffffffffffffffffffffff16815250505f3411156100b0573373ffffffffffffffffffffffffffffffffffffffff167fd53214ca07be5520e229c395f05a3e5c0697ec6279184ffbe2758d304fd322cc346040516100a79190610157565b60405180910390a25b50610170565b5f5ffd5b5f73ffffffffffffffffffffffffffffffffffffffff82169050919050565b5f6100e3826100ba565b9050919050565b6100f3816100d9565b81146100fd575f5ffd5b50565b5f8151905061010e816100ea565b92915050565b5f60208284031215610129576101286100b6565b5b5f61013684828501610100565b91505092915050565b5f819050919050565b6101518161013f565b82525050565b5f60208201905061016a5f830184610148565b92915050565b60805161115c61018f5f395f8181610a270152610b7c015261115c5ff3fe60806040526004361061010c575f3560e01c806389fe1f4911610094578063c1d7425811610063578063c1d7425814610305578063c80ec5221461032f578063cd031d3d14610359578063f829874214610383578063ff18bf0b1461039957610113565b806389fe1f491461025d578063951303f514610287578063975532dc146102b15780639f75f227146102db57610113565b80634a950d36116100db5780634a950d361461018b5780635ebaf1db146101b55780636dac3f83146101df578063725cedd3146102095780637e51f5311461023357610113565b8063373d6132146101175780633a4b66f1146101415780633ccfd60b1461014b5780633fdfe4641461016157610113565b3661011357005b5f5ffd5b348015610122575f5ffd5b5061012b6103a3565b6040516101389190610dfd565b60405180910390f35b6101496103a9565b005b348015610156575f5ffd5b5061015f6105a7565b005b34801561016c575f5ffd5b506101756108fd565b6040516101829190610dfd565b60405180910390f35b348015610196575f5ffd5b5061019f610903565b6040516101ac9190610dfd565b60405180910390f35b3480156101c0575f5ffd5b506101c9610908565b6040516101d69190610e55565b60405180910390f35b3480156101ea575f5ffd5b506101f361092c565b6040516102009190610dfd565b60405180910390f35b348015610214575f5ffd5b5061021d610931565b60405161022a9190610dfd565b60405180910390f35b34801561023e575f5ffd5b506102476109b1565b6040516102549190610dfd565b60405180910390f35b348015610268575f5ffd5b506102716109b7565b60405161027e9190610dfd565b60405180910390f35b348015610292575f5ffd5b5061029b6109bd565b6040516102a89190610dfd565b60405180910390f35b3480156102bc575f5ffd5b506102c5610a1a565b6040516102d29190610dfd565b60405180910390f35b3480156102e6575f5ffd5b506102ef610a25565b6040516102fc9190610ec9565b60405180910390f35b348015610310575f5ffd5b50610319610a49565b6040516103269190610dfd565b60405180910390f35b34801561033a575f5ffd5b50610343610a4e565b6040516103509190610efc565b60405180910390f35b348015610364575f5ffd5b5061036d610a60565b60405161037a9190610dfd565b60405180910390f35b34801561038e575f5ffd5b50610397610a66565b005b6103a1610c1b565b005b60045481565b5f600254141580156103bd57506002544210155b156103f4576040517fa38ed45000000000000000000000000000000000000000000000000000000000815260040160405180910390fd5b60075f9054906101000a900460ff161561043a576040517fab143c0600000000000000000000000000000000000000000000000000000000815260040160405180910390fd5b600160075f6101000a81548160ff0219169083151502179055505f340361048d576040517f7c946ed700000000000000000000000000000000000000000000000000000000815260040160405180910390fd5b5f60045411156104c9576040517f0ae3514d00000000000000000000000000000000000000000000000000000000815260040160405180910390fd5b335f5f6101000a81548173ffffffffffffffffffffffffffffffffffffffff021916908373ffffffffffffffffffffffffffffffffffffffff1602179055504260018190555060784261051c9190610f42565b60028190555060786002546105319190610f42565b600381905550346004819055503373ffffffffffffffffffffffffffffffffffffffff167f9e71bc8eea02a63969f509818f2dafb9254532904319f9dbda79b67bd34a5f3d346040516105849190610dfd565b60405180910390a25f60075f6101000a81548160ff021916908315150217905550565b5f5f9054906101000a900473ffffffffffffffffffffffffffffffffffffffff1673ffffffffffffffffffffffffffffffffffffffff163373ffffffffffffffffffffffffffffffffffffffff161461062c576040517f59cc8a2f00000000000000000000000000000000000000000000000000000000815260040160405180910390fd5b5f60045403610667576040517f1db19d3e00000000000000000000000000000000000000000000000000000000815260040160405180910390fd5b6002544210156106a3576040517f422ab0b200000000000000000000000000000000000000000000000000000000815260040160405180910390fd5b60035442106106de576040517f0353723500000000000000000000000000000000000000000000000000000000815260040160405180910390fd5b60075f9054906101000a900460ff1615610724576040517fab143c0600000000000000000000000000000000000000000000000000000000815260040160405180910390fd5b600160075f6101000a81548160ff02191690831515021790555060055f9054906101000a900460ff1615610784576040517f6507689f00000000000000000000000000000000000000000000000000000000815260040160405180910390fd5b5f5f5f9054906101000a900473ffffffffffffffffffffffffffffffffffffffff1690505f6107b1610931565b90505f816004546107c29190610f42565b9050600160055f6101000a81548160ff0219169083151502179055506107e6610d1d565b5f8373ffffffffffffffffffffffffffffffffffffffff168260405161080b90610fa2565b5f6040518083038185875af1925050503d805f8114610845576040519150601f19603f3d011682016040523d82523d5f602084013e61084a565b606091505b505090508061088e576040517f08c379a000000000000000000000000000000000000000000000000000000000815260040161088590611010565b60405180910390fd5b8373ffffffffffffffffffffffffffffffffffffffff167f92ccf450a286a957af52509bc1c9939d1a6a481783e142e41e2499f0bb66ebc683856040516108d692919061102e565b60405180910390a2505050505f60075f6101000a81548160ff021916908315150217905550565b60015481565b607881565b5f5f9054906101000a900473ffffffffffffffffffffffffffffffffffffffff1681565b607881565b5f5f600454148061094457506001544211155b15610951575f90506109ae565b5f600254421061096357600254610965565b425b90506001548111610979575f9150506109ae565b5f600154826109889190611055565b9050600c66038d7ea4c680008261099f9190611088565b6109a991906110f6565b925050505b90565b60025481565b60065481565b5f6002544210806109d057506003544210155b806109dc57505f600454145b806109f2575060055f9054906101000a900460ff165b156109ff575f9050610a17565b610a07610931565b600454610a149190610f42565b90505b90565b66038d7ea4c6800081565b7f000000000000000000000000000000000000000000000000000000000000000081565b600c81565b60055f9054906101000a900460ff1681565b60035481565b5f60045403610aa1576040517f1db19d3e00000000000000000000000000000000000000000000000000000000815260040160405180910390fd5b600354421015610add576040517fd2136ebf00000000000000000000000000000000000000000000000000000000815260040160405180910390fd5b60075f9054906101000a900460ff1615610b23576040517fab143c0600000000000000000000000000000000000000000000000000000000815260040160405180910390fd5b600160075f6101000a81548160ff0219169083151502179055505f4790505f8103610b7a576040517fa9e575de00000000000000000000000000000000000000000000000000000000815260040160405180910390fd5b7f000000000000000000000000000000000000000000000000000000000000000073ffffffffffffffffffffffffffffffffffffffff1663522e1177826040518263ffffffff1660e01b81526004015f604051808303818588803b158015610be0575f5ffd5b505af1158015610bf2573d5f5f3e3d5ffd5b5050505050610bff610d1d565b505f60075f6101000a81548160ff021916908315150217905550565b60075f9054906101000a900460ff1615610c61576040517fab143c0600000000000000000000000000000000000000000000000000000000815260040160405180910390fd5b600160075f6101000a81548160ff0219169083151502179055505f3403610cb4576040517f7c946ed700000000000000000000000000000000000000000000000000000000815260040160405180910390fd5b3373ffffffffffffffffffffffffffffffffffffffff167fd53214ca07be5520e229c395f05a3e5c0697ec6279184ffbe2758d304fd322cc34604051610cfa9190610dfd565b60405180910390a25f60075f6101000a81548160ff021916908315150217905550565b5f5f5f6101000a81548173ffffffffffffffffffffffffffffffffffffffff021916908373ffffffffffffffffffffffffffffffffffffffff1602179055505f6001819055505f6002819055505f6003819055505f6004819055505f60055f6101000a81548160ff021916908315150217905550600160065f828254610da39190610f42565b925050819055507f2fefd1688afe176decfb58096867a4514569f7c3b54ca1ba2ef9ceb7b7386987600654604051610ddb9190610dfd565b60405180910390a1565b5f819050919050565b610df781610de5565b82525050565b5f602082019050610e105f830184610dee565b92915050565b5f73ffffffffffffffffffffffffffffffffffffffff82169050919050565b5f610e3f82610e16565b9050919050565b610e4f81610e35565b82525050565b5f602082019050610e685f830184610e46565b92915050565b5f819050919050565b5f610e91610e8c610e8784610e16565b610e6e565b610e16565b9050919050565b5f610ea282610e77565b9050919050565b5f610eb382610e98565b9050919050565b610ec381610ea9565b82525050565b5f602082019050610edc5f830184610eba565b92915050565b5f8115159050919050565b610ef681610ee2565b82525050565b5f602082019050610f0f5f830184610eed565b92915050565b7f4e487b71000000000000000000000000000000000000000000000000000000005f52601160045260245ffd5b5f610f4c82610de5565b9150610f5783610de5565b9250828201905080821115610f6f57610f6e610f15565b5b92915050565b5f81905092915050565b50565b5f610f8d5f83610f75565b9150610f9882610f7f565b5f82019050919050565b5f610fac82610f82565b9150819050919050565b5f82825260208201905092915050565b7f5472616e73666572206661696c656400000000000000000000000000000000005f82015250565b5f610ffa600f83610fb6565b915061100582610fc6565b602082019050919050565b5f6020820190508181035f83015261102781610fee565b9050919050565b5f6040820190506110415f830185610dee565b61104e6020830184610dee565b9392505050565b5f61105f82610de5565b915061106a83610de5565b925082820390508181111561108257611081610f15565b5b92915050565b5f61109282610de5565b915061109d83610de5565b92508282026110ab81610de5565b915082820484148315176110c2576110c1610f15565b5b5092915050565b7f4e487b71000000000000000000000000000000000000000000000000000000005f52601260045260245ffd5b5f61110082610de5565b915061110b83610de5565b92508261111b5761111a6110c9565b5b82820490509291505056fea2646970667358221220834ce2a9f21bec79b88f3c14990f8e0630b5fc6f68864ba591c93d6e7177df3564736f6c634300081e0033","opcodes":"PUSH1 0xA0 PUSH1 0x40 MSTORE PUSH1 0x40 MLOAD PUSH2 0x12EB CODESIZE SUB DUP1 PUSH2 0x12EB DUP4 CODECOPY DUP2 DUP2 ADD PUSH1 0x40 MSTORE DUP2 ADD SWAP1 PUSH2 0x25 SWAP2 SWAP1 PUSH2 0x114 JUMP JUMPDEST DUP1 PUSH20 0xFFFFFFFFFFFFFFFFFFFFFFFFFFFFFFFFFFFFFFFF AND PUSH1 0x80 DUP2 PUSH20 0xFFFFFFFFFFFFFFFFFFFFFFFFFFFFFFFFFFFFFFFF AND DUP2 MSTORE POP POP PUSH0 CALLVALUE GT ISZERO PUSH2 0xB0 JUMPI CALLER PUSH20 0xFFFFFFFFFFFFFFFFFFFFFFFFFFFFFFFFFFFFFFFF AND PUSH32 0xD53214CA07BE5520E229C395F05A3E5C0697EC6279184FFBE2758D304FD322CC CALLVALUE PUSH1 0x40 MLOAD PUSH2 0xA7 SWAP2 SWAP1 PUSH2 0x157 JUMP JUMPDEST PUSH1 0x40 MLOAD DUP1 SWAP2 SUB SWAP1 LOG2 JUMPDEST POP PUSH2 0x170 JUMP JUMPDEST PUSH0 PUSH0 REVERT JUMPDEST PUSH0 PUSH20 0xFFFFFFFFFFFFFFFFFFFFFFFFFFFFFFFFFFFFFFFF DUP3 AND SWAP1 POP SWAP2 SWAP1 POP JUMP JUMPDEST PUSH0 PUSH2 0xE3 DUP3 PUSH2 0xBA JUMP JUMPDEST SWAP1 POP SWAP2 SWAP1 POP JUMP JUMPDEST PUSH2 0xF3 DUP2 PUSH2 0xD9 JUMP JUMPDEST DUP2 EQ PUSH2 0xFD JUMPI PUSH0 PUSH0 REVERT JUMPDEST POP JUMP JUMPDEST PUSH0 DUP2 MLOAD SWAP1 POP PUSH2 0x10E DUP2 PUSH2 0xEA JUMP JUMPDEST SWAP3 SWAP2 POP POP JUMP JUMPDEST PUSH0 PUSH1 0x20 DUP3 DUP5 SUB SLT ISZERO PUSH2 0x129 JUMPI PUSH2 0x128 PUSH2 0xB6 JUMP JUMPDEST JUMPDEST PUSH0 PUSH2 0x136 DUP5 DUP3 DUP6 ADD PUSH2 0x100 JUMP JUMPDEST SWAP2 POP POP SWAP3 SWAP2 POP POP JUMP JUMPDEST PUSH0 DUP2 SWAP1 POP SWAP2 SWAP1 POP JUMP JUMPDEST PUSH2 0x151 DUP2 PUSH2 0x13F JUMP JUMPDEST DUP3 MSTORE POP POP JUMP JUMPDEST PUSH0 PUSH1 0x20 DUP3 ADD SWAP1 POP PUSH2 0x16A PUSH0 DUP4 ADD DUP5 PUSH2 0x148 JUMP JUMPDEST SWAP3 SWAP2 POP POP JUMP JUMPDEST PUSH1 0x80 MLOAD PUSH2 0x115C PUSH2 0x18F PUSH0 CODECOPY PUSH0 DUP2 DUP2 PUSH2 0xA27 ADD MSTORE PUSH2 0xB7C ADD MSTORE PUSH2 0x115C PUSH0 RETURN INVALID PUSH1 0x80 PUSH1 0x40 MSTORE PUSH1 0x4 CALLDATASIZE LT PUSH2 0x10C JUMPI PUSH0 CALLDATALOAD PUSH1 0xE0 SHR DUP1 PUSH4 0x89FE1F49 GT PUSH2 0x94 JUMPI DUP1 PUSH4 0xC1D74258 GT PUSH2 0x63 JUMPI DUP1 PUSH4 0xC1D74258 EQ PUSH2 0x305 JUMPI DUP1 PUSH4 0xC80EC522 EQ PUSH2 0x32F JUMPI DUP1 PUSH4 0xCD031D3D EQ PUSH2 0x359 JUMPI DUP1 PUSH4 0xF8298742 EQ PUSH2 0x383 JUMPI DUP1 PUSH4 0xFF18BF0B EQ PUSH2 0x399 JUMPI PUSH2 0x113 JUMP JUMPDEST DUP1 PUSH4 0x89FE1F49 EQ PUSH2 0x25D JUMPI DUP1 PUSH4 0x951303F5 EQ PUSH2 0x287 JUMPI DUP1 PUSH4 0x975532DC EQ PUSH2 0x2B1 JUMPI DUP1 PUSH4 0x9F75F227 EQ PUSH2 0x2DB JUMPI PUSH2 0x113 JUMP JUMPDEST DUP1 PUSH4 0x4A950D36 GT PUSH2 0xDB JUMPI DUP1 PUSH4 0x4A950D36 EQ PUSH2 0x18B JUMPI DUP1 PUSH4 0x5EBAF1DB EQ PUSH2 0x1B5 JUMPI DUP1 PUSH4 0x6DAC3F83 EQ PUSH2 0x1DF JUMPI DUP1 PUSH4 0x725CEDD3 EQ PUSH2 0x209 JUMPI DUP1 PUSH4 0x7E51F531 EQ PUSH2 0x233 JUMPI PUSH2 0x113 JUMP JUMPDEST DUP1 PUSH4 0x373D6132 EQ PUSH2 0x117 JUMPI DUP1 PUSH4 0x3A4B66F1 EQ PUSH2 0x141 JUMPI DUP1 PUSH4 0x3CCFD60B EQ PUSH2 0x14B JUMPI DUP1 PUSH4 0x3FDFE464 EQ PUSH2 0x161 JUMPI PUSH2 0x113 JUMP JUMPDEST CALLDATASIZE PUSH2 0x113 JUMPI STOP JUMPDEST PUSH0 PUSH0 REVERT JUMPDEST CALLVALUE DUP1 ISZERO PUSH2 0x122 JUMPI PUSH0 PUSH0 REVERT JUMPDEST POP PUSH2 0x12B PUSH2 0x3A3 JUMP JUMPDEST PUSH1 0x40 MLOAD PUSH2 0x138 SWAP2 SWAP1 PUSH2 0xDFD JUMP JUMPDEST PUSH1 0x40 MLOAD DUP1 SWAP2 SUB SWAP1 RETURN JUMPDEST PUSH2 0x149 PUSH2 0x3A9 JUMP JUMPDEST STOP JUMPDEST CALLVALUE DUP1 ISZERO PUSH2 0x156 JUMPI PUSH0 PUSH0 REVERT JUMPDEST POP PUSH2 0x15F PUSH2 0x5A7 JUMP JUMPDEST STOP JUMPDEST CALLVALUE DUP1 ISZERO PUSH2 0x16C JUMPI PUSH0 PUSH0 REVERT JUMPDEST POP PUSH2 0x175 PUSH2 0x8FD JUMP JUMPDEST PUSH1 0x40 MLOAD PUSH2 0x182 SWAP2 SWAP1 PUSH2 0xDFD JUMP JUMPDEST PUSH1 0x40 MLOAD DUP1 SWAP2 SUB SWAP1 RETURN JUMPDEST CALLVALUE DUP1 ISZERO PUSH2 0x196 JUMPI PUSH0 PUSH0 REVERT JUMPDEST POP PUSH2 0x19F PUSH2 0x903 JUMP JUMPDEST PUSH1 0x40 MLOAD PUSH2 0x1AC SWAP2 SWAP1 PUSH2 0xDFD JUMP JUMPDEST PUSH1 0x40 MLOAD DUP1 SWAP2 SUB SWAP1 RETURN JUMPDEST CALLVALUE DUP1 ISZERO PUSH2 0x1C0 JUMPI PUSH0 PUSH0 REVERT JUMPDEST POP PUSH2 0x1C9 PUSH2 0x908 JUMP JUMPDEST PUSH1 0x40 MLOAD PUSH2 0x1D6 SWAP2 SWAP1 PUSH2 0xE55 JUMP JUMPDEST PUSH1 0x40 MLOAD DUP1 SWAP2 SUB SWAP1 RETURN JUMPDEST CALLVALUE DUP1 ISZERO PUSH2 0x1EA JUMPI PUSH0 PUSH0 REVERT JUMPDEST POP PUSH2 0x1F3 PUSH2 0x92C JUMP JUMPDEST PUSH1 0x40 MLOAD PUSH2 0x200 SWAP2 SWAP1 PUSH2 0xDFD JUMP JUMPDEST PUSH1 0x40 MLOAD DUP1 SWAP2 SUB SWAP1 RETURN JUMPDEST CALLVALUE DUP1 ISZERO PUSH2 0x214 JUMPI PUSH0 PUSH0 REVERT JUMPDEST POP PUSH2 0x21D PUSH2 0x931 JUMP JUMPDEST PUSH1 0x40 MLOAD PUSH2 0x22A SWAP2 SWAP1 PUSH2 0xDFD JUMP JUMPDEST PUSH1 0x40 MLOAD DUP1 SWAP2 SUB SWAP1 RETURN JUMPDEST CALLVALUE DUP1 ISZERO PUSH2 0x23E JUMPI PUSH0 PUSH0 REVERT JUMPDEST POP PUSH2 0x247 PUSH2 0x9B1 JUMP JUMPDEST PUSH1 0x40 MLOAD PUSH2 0x254 SWAP2 SWAP1 PUSH2 0xDFD JUMP JUMPDEST PUSH1 0x40 MLOAD DUP1 SWAP2 SUB SWAP1 RETURN JUMPDEST CALLVALUE DUP1 ISZERO PUSH2 0x268 JUMPI PUSH0 PUSH0 REVERT JUMPDEST POP PUSH2 0x271 PUSH2 0x9B7 JUMP JUMPDEST PUSH1 0x40 MLOAD PUSH2 0x27E SWAP2 SWAP1 PUSH2 0xDFD JUMP JUMPDEST PUSH1 0x40 MLOAD DUP1 SWAP2 SUB SWAP1 RETURN JUMPDEST CALLVALUE DUP1 ISZERO PUSH2 0x292 JUMPI PUSH0 PUSH0 REVERT JUMPDEST POP PUSH2 0x29B PUSH2 0x9BD JUMP JUMPDEST PUSH1 0x40 MLOAD PUSH2 0x2A8 SWAP2 SWAP1 PUSH2 0xDFD JUMP JUMPDEST PUSH1 0x40 MLOAD DUP1 SWAP2 SUB SWAP1 RETURN JUMPDEST CALLVALUE DUP1 ISZERO PUSH2 0x2BC JUMPI PUSH0 PUSH0 REVERT JUMPDEST POP PUSH2 0x2C5 PUSH2 0xA1A JUMP JUMPDEST PUSH1 0x40 MLOAD PUSH2 0x2D2 SWAP2 SWAP1 PUSH2 0xDFD JUMP JUMPDEST PUSH1 0x40 MLOAD DUP1 SWAP2 SUB SWAP1 RETURN JUMPDEST CALLVALUE DUP1 ISZERO PUSH2 0x2E6 JUMPI PUSH0 PUSH0 REVERT JUMPDEST POP PUSH2 0x2EF PUSH2 0xA25 JUMP JUMPDEST PUSH1 0x40 MLOAD PUSH2 0x2FC SWAP2 SWAP1 PUSH2 0xEC9 JUMP JUMPDEST PUSH1 0x40 MLOAD DUP1 SWAP2 SUB SWAP1 RETURN JUMPDEST CALLVALUE DUP1 ISZERO PUSH2 0x310 JUMPI PUSH0 PUSH0 REVERT JUMPDEST POP PUSH2 0x319 PUSH2 0xA49 JUMP JUMPDEST PUSH1 0x40 MLOAD PUSH2 0x326 SWAP2 SWAP1 PUSH2 0xDFD JUMP JUMPDEST PUSH1 0x40 MLOAD DUP1 SWAP2 SUB SWAP1 RETURN JUMPDEST CALLVALUE DUP1 ISZERO PUSH2 0x33A JUMPI PUSH0 PUSH0 REVERT JUMPDEST POP PUSH2 0x343 PUSH2 0xA4E JUMP JUMPDEST PUSH1 0x40 MLOAD PUSH2 0x350 SWAP2 SWAP1 PUSH2 0xEFC JUMP JUMPDEST PUSH1 0x40 MLOAD DUP1 SWAP2 SUB SWAP1 RETURN JUMPDEST CALLVALUE DUP1 ISZERO PUSH2 0x364 JUMPI PUSH0 PUSH0 REVERT JUMPDEST POP PUSH2 0x36D PUSH2 0xA60 JUMP JUMPDEST PUSH1 0x40 MLOAD PUSH2 0x37A SWAP2 SWAP1 PUSH2 0xDFD JUMP JUMPDEST PUSH1 0x40 MLOAD DUP1 SWAP2 SUB SWAP1 RETURN JUMPDEST CALLVALUE DUP1 ISZERO PUSH2 0x38E JUMPI PUSH0 PUSH0 REVERT JUMPDEST POP PUSH2 0x397 PUSH2 0xA66 JUMP JUMPDEST STOP JUMPDEST PUSH2 0x3A1 PUSH2 0xC1B JUMP JUMPDEST STOP JUMPDEST PUSH1 0x4 SLOAD DUP2 JUMP JUMPDEST PUSH0 PUSH1 0x2 SLOAD EQ ISZERO DUP1 ISZERO PUSH2 0x3BD JUMPI POP PUSH1 0x2 SLOAD TIMESTAMP LT ISZERO JUMPDEST ISZERO PUSH2 0x3F4 JUMPI PUSH1 0x40 MLOAD PUSH32 0xA38ED45000000000000000000000000000000000000000000000000000000000 DUP2 MSTORE PUSH1 0x4 ADD PUSH1 0x40 MLOAD DUP1 SWAP2 SUB SWAP1 REVERT JUMPDEST PUSH1 0x7 PUSH0 SWAP1 SLOAD SWAP1 PUSH2 0x100 EXP SWAP1 DIV PUSH1 0xFF AND ISZERO PUSH2 0x43A JUMPI PUSH1 0x40 MLOAD PUSH32 0xAB143C0600000000000000000000000000000000000000000000000000000000 DUP2 MSTORE PUSH1 0x4 ADD PUSH1 0x40 MLOAD DUP1 SWAP2 SUB SWAP1 REVERT JUMPDEST PUSH1 0x1 PUSH1 0x7 PUSH0 PUSH2 0x100 EXP DUP2 SLOAD DUP2 PUSH1 0xFF MUL NOT AND SWAP1 DUP4 ISZERO ISZERO MUL OR SWAP1 SSTORE POP PUSH0 CALLVALUE SUB PUSH2 0x48D JUMPI PUSH1 0x40 MLOAD PUSH32 0x7C946ED700000000000000000000000000000000000000000000000000000000 DUP2 MSTORE PUSH1 0x4 ADD PUSH1 0x40 MLOAD DUP1 SWAP2 SUB SWAP1 REVERT JUMPDEST PUSH0 PUSH1 0x4 SLOAD GT ISZERO PUSH2 0x4C9 JUMPI PUSH1 0x40 MLOAD PUSH32 0xAE3514D00000000000000000000000000000000000000000000000000000000 DUP2 MSTORE PUSH1 0x4 ADD PUSH1 0x40 MLOAD DUP1 SWAP2 SUB SWAP1 REVERT JUMPDEST CALLER PUSH0 PUSH0 PUSH2 0x100 EXP DUP2 SLOAD DUP2 PUSH20 0xFFFFFFFFFFFFFFFFFFFFFFFFFFFFFFFFFFFFFFFF MUL NOT AND SWAP1 DUP4 PUSH20 0xFFFFFFFFFFFFFFFFFFFFFFFFFFFFFFFFFFFFFFFF AND MUL OR SWAP1 SSTORE POP TIMESTAMP PUSH1 0x1 DUP2 SWAP1 SSTORE POP PUSH1 0x78 TIMESTAMP PUSH2 0x51C SWAP2 SWAP1 PUSH2 0xF42 JUMP JUMPDEST PUSH1 0x2 DUP2 SWAP1 SSTORE POP PUSH1 0x78 PUSH1 0x2 SLOAD PUSH2 0x531 SWAP2 SWAP1 PUSH2 0xF42 JUMP JUMPDEST PUSH1 0x3 DUP2 SWAP1 SSTORE POP CALLVALUE PUSH1 0x4 DUP2 SWAP1 SSTORE POP CALLER PUSH20 0xFFFFFFFFFFFFFFFFFFFFFFFFFFFFFFFFFFFFFFFF AND PUSH32 0x9E71BC8EEA02A63969F509818F2DAFB9254532904319F9DBDA79B67BD34A5F3D CALLVALUE PUSH1 0x40 MLOAD PUSH2 0x584 SWAP2 SWAP1 PUSH2 0xDFD JUMP JUMPDEST PUSH1 0x40 MLOAD DUP1 SWAP2 SUB SWAP1 LOG2 PUSH0 PUSH1 0x7 PUSH0 PUSH2 0x100 EXP DUP2 SLOAD DUP2 PUSH1 0xFF MUL NOT AND SWAP1 DUP4 ISZERO ISZERO MUL OR SWAP1 SSTORE POP JUMP JUMPDEST PUSH0 PUSH0 SWAP1 SLOAD SWAP1 PUSH2 0x100 EXP SWAP1 DIV PUSH20 0xFFFFFFFFFFFFFFFFFFFFFFFFFFFFFFFFFFFFFFFF AND PUSH20 0xFFFFFFFFFFFFFFFFFFFFFFFFFFFFFFFFFFFFFFFF AND CALLER PUSH20 0xFFFFFFFFFFFFFFFFFFFFFFFFFFFFFFFFFFFFFFFF AND EQ PUSH2 0x62C JUMPI PUSH1 0x40 MLOAD PUSH32 0x59CC8A2F00000000000000000000000000000000000000000000000000000000 DUP2 MSTORE PUSH1 0x4 ADD PUSH1 0x40 MLOAD DUP1 SWAP2 SUB SWAP1 REVERT JUMPDEST PUSH0 PUSH1 0x4 SLOAD SUB PUSH2 0x667 JUMPI PUSH1 0x40 MLOAD PUSH32 0x1DB19D3E00000000000000000000000000000000000000000000000000000000 DUP2 MSTORE PUSH1 0x4 ADD PUSH1 0x40 MLOAD DUP1 SWAP2 SUB SWAP1 REVERT JUMPDEST PUSH1 0x2 SLOAD TIMESTAMP LT ISZERO PUSH2 0x6A3 JUMPI PUSH1 0x40 MLOAD PUSH32 0x422AB0B200000000000000000000000000000000000000000000000000000000 DUP2 MSTORE PUSH1 0x4 ADD PUSH1 0x40 MLOAD DUP1 SWAP2 SUB SWAP1 REVERT JUMPDEST PUSH1 0x3 SLOAD TIMESTAMP LT PUSH2 0x6DE JUMPI PUSH1 0x40 MLOAD PUSH32 0x353723500000000000000000000000000000000000000000000000000000000 DUP2 MSTORE PUSH1 0x4 ADD PUSH1 0x40 MLOAD DUP1 SWAP2 SUB SWAP1 REVERT JUMPDEST PUSH1 0x7 PUSH0 SWAP1 SLOAD SWAP1 PUSH2 0x100 EXP SWAP1 DIV PUSH1 0xFF AND ISZERO PUSH2 0x724 JUMPI PUSH1 0x40 MLOAD PUSH32 0xAB143C0600000000000000000000000000000000000000000000000000000000 DUP2 MSTORE PUSH1 0x4 ADD PUSH1 0x40 MLOAD DUP1 SWAP2 SUB SWAP1 REVERT JUMPDEST PUSH1 0x1 PUSH1 0x7 PUSH0 PUSH2 0x100 EXP DUP2 SLOAD DUP2 PUSH1 0xFF MUL NOT AND SWAP1 DUP4 ISZERO ISZERO MUL OR SWAP1 SSTORE POP PUSH1 0x5 PUSH0 SWAP1 SLOAD SWAP1 PUSH2 0x100 EXP SWAP1 DIV PUSH1 0xFF AND ISZERO PUSH2 0x784 JUMPI PUSH1 0x40 MLOAD PUSH32 0x6507689F00000000000000000000000000000000000000000000000000000000 DUP2 MSTORE PUSH1 0x4 ADD PUSH1 0x40 MLOAD DUP1 SWAP2 SUB SWAP1 REVERT JUMPDEST PUSH0 PUSH0 PUSH0 SWAP1 SLOAD SWAP1 PUSH2 0x100 EXP SWAP1 DIV PUSH20 0xFFFFFFFFFFFFFFFFFFFFFFFFFFFFFFFFFFFFFFFF AND SWAP1 POP PUSH0 PUSH2 0x7B1 PUSH2 0x931 JUMP JUMPDEST SWAP1 POP PUSH0 DUP2 PUSH1 0x4 SLOAD PUSH2 0x7C2 SWAP2 SWAP1 PUSH2 0xF42 JUMP JUMPDEST SWAP1 POP PUSH1 0x1 PUSH1 0x5 PUSH0 PUSH2 0x100 EXP DUP2 SLOAD DUP2 PUSH1 0xFF MUL NOT AND SWAP1 DUP4 ISZERO ISZERO MUL OR SWAP1 SSTORE POP PUSH2 0x7E6 PUSH2 0xD1D JUMP JUMPDEST PUSH0 DUP4 PUSH20 0xFFFFFFFFFFFFFFFFFFFFFFFFFFFFFFFFFFFFFFFF AND DUP3 PUSH1 0x40 MLOAD PUSH2 0x80B SWAP1 PUSH2 0xFA2 JUMP JUMPDEST PUSH0 PUSH1 0x40 MLOAD DUP1 DUP4 SUB DUP2 DUP6 DUP8 GAS CALL SWAP3 POP POP POP RETURNDATASIZE DUP1 PUSH0 DUP2 EQ PUSH2 0x845 JUMPI PUSH1 0x40 MLOAD SWAP2 POP PUSH1 0x1F NOT PUSH1 0x3F RETURNDATASIZE ADD AND DUP3 ADD PUSH1 0x40 MSTORE RETURNDATASIZE DUP3 MSTORE RETURNDATASIZE PUSH0 PUSH1 0x20 DUP5 ADD RETURNDATACOPY PUSH2 0x84A JUMP JUMPDEST PUSH1 0x60 SWAP2 POP JUMPDEST POP POP SWAP1 POP DUP1 PUSH2 0x88E JUMPI PUSH1 0x40 MLOAD PUSH32 0x8C379A000000000000000000000000000000000000000000000000000000000 DUP2 MSTORE PUSH1 0x4 ADD PUSH2 0x885 SWAP1 PUSH2 0x1010 JUMP JUMPDEST PUSH1 0x40 MLOAD DUP1 SWAP2 SUB SWAP1 REVERT JUMPDEST DUP4 PUSH20 0xFFFFFFFFFFFFFFFFFFFFFFFFFFFFFFFFFFFFFFFF AND PUSH32 0x92CCF450A286A957AF52509BC1C9939D1A6A481783E142E41E2499F0BB66EBC6 DUP4 DUP6 PUSH1 0x40 MLOAD PUSH2 0x8D6 SWAP3 SWAP2 SWAP1 PUSH2 0x102E JUMP JUMPDEST PUSH1 0x40 MLOAD DUP1 SWAP2 SUB SWAP1 LOG2 POP POP POP POP PUSH0 PUSH1 0x7 PUSH0 PUSH2 0x100 EXP DUP2 SLOAD DUP2 PUSH1 0xFF MUL NOT AND SWAP1 DUP4 ISZERO ISZERO MUL OR SWAP1 SSTORE POP JUMP JUMPDEST PUSH1 0x1 SLOAD DUP2 JUMP JUMPDEST PUSH1 0x78 DUP2 JUMP JUMPDEST PUSH0 PUSH0 SWAP1 SLOAD SWAP1 PUSH2 0x100 EXP SWAP1 DIV PUSH20 0xFFFFFFFFFFFFFFFFFFFFFFFFFFFFFFFFFFFFFFFF AND DUP2 JUMP JUMPDEST PUSH1 0x78 DUP2 JUMP JUMPDEST PUSH0 PUSH0 PUSH1 0x4 SLOAD EQ DUP1 PUSH2 0x944 JUMPI POP PUSH1 0x1 SLOAD TIMESTAMP GT ISZERO JUMPDEST ISZERO PUSH2 0x951 JUMPI PUSH0 SWAP1 POP PUSH2 0x9AE JUMP JUMPDEST PUSH0 PUSH1 0x2 SLOAD TIMESTAMP LT PUSH2 0x963 JUMPI PUSH1 0x2 SLOAD PUSH2 0x965 JUMP JUMPDEST TIMESTAMP JUMPDEST SWAP1 POP PUSH1 0x1 SLOAD DUP2 GT PUSH2 0x979 JUMPI PUSH0 SWAP2 POP POP PUSH2 0x9AE JUMP JUMPDEST PUSH0 PUSH1 0x1 SLOAD DUP3 PUSH2 0x988 SWAP2 SWAP1 PUSH2 0x1055 JUMP JUMPDEST SWAP1 POP PUSH1 0xC PUSH7 0x38D7EA4C68000 DUP3 PUSH2 0x99F SWAP2 SWAP1 PUSH2 0x1088 JUMP JUMPDEST PUSH2 0x9A9 SWAP2 SWAP1 PUSH2 0x10F6 JUMP JUMPDEST SWAP3 POP POP POP JUMPDEST SWAP1 JUMP JUMPDEST PUSH1 0x2 SLOAD DUP2 JUMP JUMPDEST PUSH1 0x6 SLOAD DUP2 JUMP JUMPDEST PUSH0 PUSH1 0x2 SLOAD TIMESTAMP LT DUP1 PUSH2 0x9D0 JUMPI POP PUSH1 0x3 SLOAD TIMESTAMP LT ISZERO JUMPDEST DUP1 PUSH2 0x9DC JUMPI POP PUSH0 PUSH1 0x4 SLOAD EQ JUMPDEST DUP1 PUSH2 0x9F2 JUMPI POP PUSH1 0x5 PUSH0 SWAP1 SLOAD SWAP1 PUSH2 0x100 EXP SWAP1 DIV PUSH1 0xFF AND JUMPDEST ISZERO PUSH2 0x9FF JUMPI PUSH0 SWAP1 POP PUSH2 0xA17 JUMP JUMPDEST PUSH2 0xA07 PUSH2 0x931 JUMP JUMPDEST PUSH1 0x4 SLOAD PUSH2 0xA14 SWAP2 SWAP1 PUSH2 0xF42 JUMP JUMPDEST SWAP1 POP JUMPDEST SWAP1 JUMP JUMPDEST PUSH7 0x38D7EA4C68000 DUP2 JUMP JUMPDEST PUSH32 0x0 DUP2 JUMP JUMPDEST PUSH1 0xC DUP2 JUMP JUMPDEST PUSH1 0x5 PUSH0 SWAP1 SLOAD SWAP1 PUSH2 0x100 EXP SWAP1 DIV PUSH1 0xFF AND DUP2 JUMP JUMPDEST PUSH1 0x3 SLOAD DUP2 JUMP JUMPDEST PUSH0 PUSH1 0x4 SLOAD SUB PUSH2 0xAA1 JUMPI PUSH1 0x40 MLOAD PUSH32 0x1DB19D3E00000000000000000000000000000000000000000000000000000000 DUP2 MSTORE PUSH1 0x4 ADD PUSH1 0x40 MLOAD DUP1 SWAP2 SUB SWAP1 REVERT JUMPDEST PUSH1 0x3 SLOAD TIMESTAMP LT ISZERO PUSH2 0xADD JUMPI PUSH1 0x40 MLOAD PUSH32 0xD2136EBF00000000000000000000000000000000000000000000000000000000 DUP2 MSTORE PUSH1 0x4 ADD PUSH1 0x40 MLOAD DUP1 SWAP2 SUB SWAP1 REVERT JUMPDEST PUSH1 0x7 PUSH0 SWAP1 SLOAD SWAP1 PUSH2 0x100 EXP SWAP1 DIV PUSH1 0xFF AND ISZERO PUSH2 0xB23 JUMPI PUSH1 0x40 MLOAD PUSH32 0xAB143C0600000000000000000000000000000000000000000000000000000000 DUP2 MSTORE PUSH1 0x4 ADD PUSH1 0x40 MLOAD DUP1 SWAP2 SUB SWAP1 REVERT JUMPDEST PUSH1 0x1 PUSH1 0x7 PUSH0 PUSH2 0x100 EXP DUP2 SLOAD DUP2 PUSH1 0xFF MUL NOT AND SWAP1 DUP4 ISZERO ISZERO MUL OR SWAP1 SSTORE POP PUSH0 SELFBALANCE SWAP1 POP PUSH0 DUP2 SUB PUSH2 0xB7A JUMPI PUSH1 0x40 MLOAD PUSH32 0xA9E575DE00000000000000000000000000000000000000000000000000000000 DUP2 MSTORE PUSH1 0x4 ADD PUSH1 0x40 MLOAD DUP1 SWAP2 SUB SWAP1 REVERT JUMPDEST PUSH32 0x0 PUSH20 0xFFFFFFFFFFFFFFFFFFFFFFFFFFFFFFFFFFFFFFFF AND PUSH4 0x522E1177 DUP3 PUSH1 0x40 MLOAD DUP3 PUSH4 0xFFFFFFFF AND PUSH1 0xE0 SHL DUP2 MSTORE PUSH1 0x4 ADD PUSH0 PUSH1 0x40 MLOAD DUP1 DUP4 SUB DUP2 DUP6 DUP9 DUP1 EXTCODESIZE ISZERO DUP1 ISZERO PUSH2 0xBE0 JUMPI PUSH0 PUSH0 REVERT JUMPDEST POP GAS CALL ISZERO DUP1 ISZERO PUSH2 0xBF2 JUMPI RETURNDATASIZE PUSH0 PUSH0 RETURNDATACOPY RETURNDATASIZE PUSH0 REVERT JUMPDEST POP POP POP POP POP PUSH2 0xBFF PUSH2 0xD1D JUMP JUMPDEST POP PUSH0 PUSH1 0x7 PUSH0 PUSH2 0x100 EXP DUP2 SLOAD DUP2 PUSH1 0xFF MUL NOT AND SWAP1 DUP4 ISZERO ISZERO MUL OR SWAP1 SSTORE POP JUMP JUMPDEST PUSH1 0x7 PUSH0 SWAP1 SLOAD SWAP1 PUSH2 0x100 EXP SWAP1 DIV PUSH1 0xFF AND ISZERO PUSH2 0xC61 JUMPI PUSH1 0x40 MLOAD PUSH32 0xAB143C0600000000000000000000000000000000000000000000000000000000 DUP2 MSTORE PUSH1 0x4 ADD PUSH1 0x40 MLOAD DUP1 SWAP2 SUB SWAP1 REVERT JUMPDEST PUSH1 0x1 PUSH1 0x7 PUSH0 PUSH2 0x100 EXP DUP2 SLOAD DUP2 PUSH1 0xFF MUL NOT AND SWAP1 DUP4 ISZERO ISZERO MUL OR SWAP1 SSTORE POP PUSH0 CALLVALUE SUB PUSH2 0xCB4 JUMPI PUSH1 0x40 MLOAD PUSH32 0x7C946ED700000000000000000000000000000000000000000000000000000000 DUP2 MSTORE PUSH1 0x4 ADD PUSH1 0x40 MLOAD DUP1 SWAP2 SUB SWAP1 REVERT JUMPDEST CALLER PUSH20 0xFFFFFFFFFFFFFFFFFFFFFFFFFFFFFFFFFFFFFFFF AND PUSH32 0xD53214CA07BE5520E229C395F05A3E5C0697EC6279184FFBE2758D304FD322CC CALLVALUE PUSH1 0x40 MLOAD PUSH2 0xCFA SWAP2 SWAP1 PUSH2 0xDFD JUMP JUMPDEST PUSH1 0x40 MLOAD DUP1 SWAP2 SUB SWAP1 LOG2 PUSH0 PUSH1 0x7 PUSH0 PUSH2 0x100 EXP DUP2 SLOAD DUP2 PUSH1 0xFF MUL NOT AND SWAP1 DUP4 ISZERO ISZERO MUL OR SWAP1 SSTORE POP JUMP JUMPDEST PUSH0 PUSH0 PUSH0 PUSH2 0x100 EXP DUP2 SLOAD DUP2 PUSH20 0xFFFFFFFFFFFFFFFFFFFFFFFFFFFFFFFFFFFFFFFF MUL NOT AND SWAP1 DUP4 PUSH20 0xFFFFFFFFFFFFFFFFFFFFFFFFFFFFFFFFFFFFFFFF AND MUL OR SWAP1 SSTORE POP PUSH0 PUSH1 0x1 DUP2 SWAP1 SSTORE POP PUSH0 PUSH1 0x2 DUP2 SWAP1 SSTORE POP PUSH0 PUSH1 0x3 DUP2 SWAP1 SSTORE POP PUSH0 PUSH1 0x4 DUP2 SWAP1 SSTORE POP PUSH0 PUSH1 0x5 PUSH0 PUSH2 0x100 EXP DUP2 SLOAD DUP2 PUSH1 0xFF MUL NOT AND SWAP1 DUP4 ISZERO ISZERO MUL OR SWAP1 SSTORE POP PUSH1 0x1 PUSH1 0x6 PUSH0 DUP3 DUP3 SLOAD PUSH2 0xDA3 SWAP2 SWAP1 PUSH2 0xF42 JUMP JUMPDEST SWAP3 POP POP DUP2 SWAP1 SSTORE POP PUSH32 0x2FEFD1688AFE176DECFB58096867A4514569F7C3B54CA1BA2EF9CEB7B7386987 PUSH1 0x6 SLOAD PUSH1 0x40 MLOAD PUSH2 0xDDB SWAP2 SWAP1 PUSH2 0xDFD JUMP JUMPDEST PUSH1 0x40 MLOAD DUP1 SWAP2 SUB SWAP1 LOG1 JUMP JUMPDEST PUSH0 DUP2 SWAP1 POP SWAP2 SWAP1 POP JUMP JUMPDEST PUSH2 0xDF7 DUP2 PUSH2 0xDE5 JUMP JUMPDEST DUP3 MSTORE POP POP JUMP JUMPDEST PUSH0 PUSH1 0x20 DUP3 ADD SWAP1 POP PUSH2 0xE10 PUSH0 DUP4 ADD DUP5 PUSH2 0xDEE JUMP JUMPDEST SWAP3 SWAP2 POP POP JUMP JUMPDEST PUSH0 PUSH20 0xFFFFFFFFFFFFFFFFFFFFFFFFFFFFFFFFFFFFFFFF DUP3 AND SWAP1 POP SWAP2 SWAP1 POP JUMP JUMPDEST PUSH0 PUSH2 0xE3F DUP3 PUSH2 0xE16 JUMP JUMPDEST SWAP1 POP SWAP2 SWAP1 POP JUMP JUMPDEST PUSH2 0xE4F DUP2 PUSH2 0xE35 JUMP JUMPDEST DUP3 MSTORE POP POP JUMP JUMPDEST PUSH0 PUSH1 0x20 DUP3 ADD SWAP1 POP PUSH2 0xE68 PUSH0 DUP4 ADD DUP5 PUSH2 0xE46 JUMP JUMPDEST SWAP3 SWAP2 POP POP JUMP JUMPDEST PUSH0 DUP2 SWAP1 POP SWAP2 SWAP1 POP JUMP JUMPDEST PUSH0 PUSH2 0xE91 PUSH2 0xE8C PUSH2 0xE87 DUP5 PUSH2 0xE16 JUMP JUMPDEST PUSH2 0xE6E JUMP JUMPDEST PUSH2 0xE16 JUMP JUMPDEST SWAP1 POP SWAP2 SWAP1 POP JUMP JUMPDEST PUSH0 PUSH2 0xEA2 DUP3 PUSH2 0xE77 JUMP JUMPDEST SWAP1 POP SWAP2 SWAP1 POP JUMP JUMPDEST PUSH0 PUSH2 0xEB3 DUP3 PUSH2 0xE98 JUMP JUMPDEST SWAP1 POP SWAP2 SWAP1 POP JUMP JUMPDEST PUSH2 0xEC3 DUP2 PUSH2 0xEA9 JUMP JUMPDEST DUP3 MSTORE POP POP JUMP JUMPDEST PUSH0 PUSH1 0x20 DUP3 ADD SWAP1 POP PUSH2 0xEDC PUSH0 DUP4 ADD DUP5 PUSH2 0xEBA JUMP JUMPDEST SWAP3 SWAP2 POP POP JUMP JUMPDEST PUSH0 DUP2 ISZERO ISZERO SWAP1 POP SWAP2 SWAP1 POP JUMP JUMPDEST PUSH2 0xEF6 DUP2 PUSH2 0xEE2 JUMP JUMPDEST DUP3 MSTORE POP POP JUMP JUMPDEST PUSH0 PUSH1 0x20 DUP3 ADD SWAP1 POP PUSH2 0xF0F PUSH0 DUP4 ADD DUP5 PUSH2 0xEED JUMP JUMPDEST SWAP3 SWAP2 POP POP JUMP JUMPDEST PUSH32 0x4E487B7100000000000000000000000000000000000000000000000000000000 PUSH0 MSTORE PUSH1 0x11 PUSH1 0x4 MSTORE PUSH1 0x24 PUSH0 REVERT JUMPDEST PUSH0 PUSH2 0xF4C DUP3 PUSH2 0xDE5 JUMP JUMPDEST SWAP2 POP PUSH2 0xF57 DUP4 PUSH2 0xDE5 JUMP JUMPDEST SWAP3 POP DUP3 DUP3 ADD SWAP1 POP DUP1 DUP3 GT ISZERO PUSH2 0xF6F JUMPI PUSH2 0xF6E PUSH2 0xF15 JUMP JUMPDEST JUMPDEST SWAP3 SWAP2 POP POP JUMP JUMPDEST PUSH0 DUP2 SWAP1 POP SWAP3 SWAP2 POP POP JUMP JUMPDEST POP JUMP JUMPDEST PUSH0 PUSH2 0xF8D PUSH0 DUP4 PUSH2 0xF75 JUMP JUMPDEST SWAP2 POP PUSH2 0xF98 DUP3 PUSH2 0xF7F JUMP JUMPDEST PUSH0 DUP3 ADD SWAP1 POP SWAP2 SWAP1 POP JUMP JUMPDEST PUSH0 PUSH2 0xFAC DUP3 PUSH2 0xF82 JUMP JUMPDEST SWAP2 POP DUP2 SWAP1 POP SWAP2 SWAP1 POP JUMP JUMPDEST PUSH0 DUP3 DUP3 MSTORE PUSH1 0x20 DUP3 ADD SWAP1 POP SWAP3 SWAP2 POP POP JUMP JUMPDEST PUSH32 0x5472616E73666572206661696C65640000000000000000000000000000000000 PUSH0 DUP3 ADD MSTORE POP JUMP JUMPDEST PUSH0 PUSH2 0xFFA PUSH1 0xF DUP4 PUSH2 0xFB6 JUMP JUMPDEST SWAP2 POP PUSH2 0x1005 DUP3 PUSH2 0xFC6 JUMP JUMPDEST PUSH1 0x20 DUP3 ADD SWAP1 POP SWAP2 SWAP1 POP JUMP JUMPDEST PUSH0 PUSH1 0x20 DUP3 ADD SWAP1 POP DUP2 DUP2 SUB PUSH0 DUP4 ADD MSTORE PUSH2 0x1027 DUP2 PUSH2 0xFEE JUMP JUMPDEST SWAP1 POP SWAP2 SWAP1 POP JUMP JUMPDEST PUSH0 PUSH1 0x40 DUP3 ADD SWAP1 POP PUSH2 0x1041 PUSH0 DUP4 ADD DUP6 PUSH2 0xDEE JUMP JUMPDEST PUSH2 0x104E PUSH1 0x20 DUP4 ADD DUP5 PUSH2 0xDEE JUMP JUMPDEST SWAP4 SWAP3 POP POP POP JUMP JUMPDEST PUSH0 PUSH2 0x105F DUP3 PUSH2 0xDE5 JUMP JUMPDEST SWAP2 POP PUSH2 0x106A DUP4 PUSH2 0xDE5 JUMP JUMPDEST SWAP3 POP DUP3 DUP3 SUB SWAP1 POP DUP2 DUP2 GT ISZERO PUSH2 0x1082 JUMPI PUSH2 0x1081 PUSH2 0xF15 JUMP JUMPDEST JUMPDEST SWAP3 SWAP2 POP POP JUMP JUMPDEST PUSH0 PUSH2 0x1092 DUP3 PUSH2 0xDE5 JUMP JUMPDEST SWAP2 POP PUSH2 0x109D DUP4 PUSH2 0xDE5 JUMP JUMPDEST SWAP3 POP DUP3 DUP3 MUL PUSH2 0x10AB DUP2 PUSH2 0xDE5 JUMP JUMPDEST SWAP2 POP DUP3 DUP3 DIV DUP5 EQ DUP4 ISZERO OR PUSH2 0x10C2 JUMPI PUSH2 0x10C1 PUSH2 0xF15 JUMP JUMPDEST JUMPDEST POP SWAP3 SWAP2 POP POP JUMP JUMPDEST PUSH32 0x4E487B7100000000000000000000000000000000000000000000000000000000 PUSH0 MSTORE PUSH1 0x12 PUSH1 0x4 MSTORE PUSH1 0x24 PUSH0 REVERT JUMPDEST PUSH0 PUSH2 0x1100 DUP3 PUSH2 0xDE5 JUMP JUMPDEST SWAP2 POP PUSH2 0x110B DUP4 PUSH2 0xDE5 JUMP JUMPDEST SWAP3 POP DUP3 PUSH2 0x111B JUMPI PUSH2 0x111A PUSH2 0x10C9 JUMP JUMPDEST JUMPDEST DUP3 DUP3 DIV SWAP1 POP SWAP3 SWAP2 POP POP JUMP INVALID LOG2 PUSH5 0x6970667358 0x22 SLT KECCAK256 DUP4 0x4C 0xE2 0xA9 CALLCODE SHL EOFCREATE 0x79 0xB8 DUP16 EXTCODECOPY EQ SWAP10 0xF DUP15 MOD ADDRESS 0xB5 0xFC PUSH16 0x68864BA591C93D6E7177DF3564736F6C PUSH4 0x4300081E STOP CALLER "},"methodIdentifiers":{"REWARD_PER_BLOCK()":"975532dc","SECONDS_PER_BLOCK()":"c1d74258","STAKE_WINDOW_DURATION()":"6dac3f83","WITHDRAW_WINDOW_DURATION()":"4a950d36","calculateReward()":"725cedd3","completedRounds()":"89fe1f49","exampleExternalContract()":"9f75f227","fundRewards()":"ff18bf0b","lockFundsInExternalContract()":"f8298742","stake()":"3a4b66f1","stakeDeadline()":"7e51f531","stakedAmount()":"373d6132","stakedAt()":"3fdfe464","staker()":"5ebaf1db","withdraw()":"3ccfd60b","withdrawDeadline()":"cd031d3d","withdrawableAmount()":"951303f5","withdrawn()":"c80ec522"}}}}}