{
  "_format": "hh3-artifact-1",
  "contractName": "Week6Module",
  "sourceName": "contracts/Week6Module.sol",
  "abi": [
    {
      "inputs": [],
      "name": "ASSIGNMENT_ID",
      "outputs": [
        {
          "internalType": "bytes32",
          "name": "",
          "type": "bytes32"
        }
      ],
      "stateMutability": "view",
      "type": "function"
    },
    {
      "inputs": [],
      "name": "STAKE_WINDOW_SECONDS",
      "outputs": [
        {
          "internalType": "uint256",
          "name": "",
          "type": "uint256"
        }
      ],
      "stateMutability": "view",
      "type": "function"
    },
    {
      "inputs": [],
      "name": "TITLE",
      "outputs": [
        {
          "internalType": "string",
          "name": "",
          "type": "string"
        }
      ],
      "stateMutability": "view",
      "type": "function"
    },
    {
      "inputs": [],
      "name": "WEEK",
      "outputs": [
        {
          "internalType": "string",
          "name": "",
          "type": "string"
        }
      ],
      "stateMutability": "view",
      "type": "function"
    },
    {
      "inputs": [],
      "name": "WITHDRAW_WINDOW_SECONDS",
      "outputs": [
        {
          "internalType": "uint256",
          "name": "",
          "type": "uint256"
        }
      ],
      "stateMutability": "view",
      "type": "function"
    },
    {
      "inputs": [],
      "name": "assignment",
      "outputs": [
        {
          "internalType": "bytes32",
          "name": "id",
          "type": "bytes32"
        },
        {
          "internalType": "string",
          "name": "week",
          "type": "string"
        },
        {
          "internalType": "string",
          "name": "title",
          "type": "string"
        },
        {
          "internalType": "string",
          "name": "summary",
          "type": "string"
        }
      ],
      "stateMutability": "pure",
      "type": "function"
    }
  ],
  "bytecode": "0x6080604052348015600e575f5ffd5b506104728061001c5f395ff3fe608060405234801561000f575f5ffd5b5060043610610060575f3560e01c806325b08c78146100645780636a565f731461008257806371ca2ecf146100a05780637ef83804146100c1578063a9f05b8d146100df578063f4359ce5146100fd575b5f5ffd5b61006c61011b565b604051610079919061028d565b60405180910390f35b61008a610120565b60405161009791906102be565b60405180910390f35b6100a8610144565b6040516100b89493929190610347565b60405180910390f35b6100c96101fe565b6040516100d6919061039f565b60405180910390f35b6100e7610237565b6040516100f4919061028d565b60405180910390f35b61010561023c565b604051610112919061039f565b60405180910390f35b60f081565b7fb5f457e25783f60cb742b99eb7dc806775943d8622425291d3ee814312cc3dfa81565b5f60608060607fb5f457e25783f60cb742b99eb7dc806775943d8622425291d3ee814312cc3dfa6040518060400160405280600681526020017f5765656b203600000000000000000000000000000000000000000000000000008152506040518060400160405280601b81526020017f4275696c642061205374616b696e67204170706c69636174696f6e00000000008152506040518060a00160405280607d81526020016103c0607d9139935093509350935090919293565b6040518060400160405280601b81526020017f4275696c642061205374616b696e67204170706c69636174696f6e000000000081525081565b607881565b6040518060400160405280600681526020017f5765656b2036000000000000000000000000000000000000000000000000000081525081565b5f819050919050565b61028781610275565b82525050565b5f6020820190506102a05f83018461027e565b92915050565b5f819050919050565b6102b8816102a6565b82525050565b5f6020820190506102d15f8301846102af565b92915050565b5f81519050919050565b5f82825260208201905092915050565b8281835e5f83830152505050565b5f601f19601f8301169050919050565b5f610319826102d7565b61032381856102e1565b93506103338185602086016102f1565b61033c816102ff565b840191505092915050565b5f60808201905061035a5f8301876102af565b818103602083015261036c818661030f565b90508181036040830152610380818561030f565b90508181036060830152610394818461030f565b905095945050505050565b5f6020820190508181035f8301526103b7818461030f565b90509291505056fe5374616b65204554482c2077697468647261772072657761726473206265666f7265207468652077696e646f7720636c6f7365732c20616e64206c6f636b2072656d61696e696e672066756e647320696e746f207468652065787465726e616c20636f6e74726163742061667465722074686520636f6f6c646f776e2ea2646970667358221220a13d5e1e802cfb5027e5fde0101bac80ec7cf6331f83e98bc3550340ca8e760864736f6c634300081e0033",
  "linkReferences": {},
  "deployedLinkReferences": {},
  "immutableReferences": {},
  "inputSourceName": "project/contracts/Week6Module.sol",
  "buildInfoId": "solc-0_8_30-c70143cf22d9de41339239faf55b91cc985d2dd9"
}